:020000040000FA
:10000000C0310020AD020000B5020000B7020000C0
:10001000B9020000BB020000BD02000000000000A9
:1000200000000000000000000000000015020000B9
:10003000C10200000000000051020000C5020000E3
:10004000E1030000C7020000C7020000C702000071
:10005000C7020000C70200003D030000C702000005
:10006000C7020000C7020000C7020000C70200006C
:10007000C7020000C7020000C7020000C70200005C
:10008000C702000039040000C7020000C7020000D8
:10009000C7020000C7020000C7020000C70200003C
:1000A000C7020000C7020000C7020000C70200002C
:1000B000C7020000C70200000000000000000000AE
:1000C000C7020000C7020000C7020000C70200000C
:1000D000C7020000C7020000C702000000000000C5
:1000E0000000000000000000000000000000000010
:1000F0000000000000000000000000000000000000
:1001000000000000000000000000000000000000EF
:1001100000000000000000000000000000000000DF
:1001200000000000000000000000000000000000CF
:1001300000000000000000000000000000000000BF
:1001400000000000000000000000000000000000AF
:10015000000000000000000000000000000000009F
:10016000000000000000000000000000000000008F
:10017000000000000000000000000000000000007F
:10018000000000000000000000000000000000006F
:10019000000000000000000000000000000000005F
:1001A000000000000000000000000000000000004F
:1001B000000000000000000000000000000000003F
:1001C000000000000000000000000000000000002F
:1001D000000000000000000000000000000000001F
:1001E000000000000000000000000000000000000F
:1001F00000000000000000000000000000000000FF
:10020000DFF80CD000F088F8004800479D09000096
:10021000C0310020244B19680868B0E8F04F80F323
:100220000988BFF36F8F4FF0000080F3118870478B
:10023000000000000548006880F3088862B661B6D7
:10024000BFF34F8FBFF36F8F00DF0000000000008F
:10025000EFF30980BFF36F8F134B1A681EF0100F76
:1002600008BF20ED108A20E9F04F106008B44FF06D
:10027000400080F31188BFF34F8FBFF36F8F01F001
:1002800027FA4FF0000080F3118808BC196808684D
:10029000B0E8F04F1EF0100F08BFB0EC108A80F3EA
:1002A0000988BFF36F8F704714000020064880470D
:1002B00006480047FEE7FEE7FEE7FEE7FEE7FEE74B
:1002C000FEE7FEE7FEE7FEE7A104000001020000F2
:1002D00040EA01039B0703D009E008C9121F08C0C8
:1002E000042AFAD203E011F8013B00F8013B521E48
:1002F000F9D27047D2B201E000F8012B491EFBD2BF
:1003000070470022F6E710B513460A460446194620
:10031000FFF7F0FF204610BD064C074D06E0E068F1
:1003200040F0010394E8070098471034AC42F6D33C
:10033000FFF76AFF381E0000581E00002DE9F84341
:100340000025DFF894804FF4807601242F46009535
:10035000304600F00FFC38B1D8F80403204203D037
:10036000304600F0FDFB2543361D64007F1CB6B20D
:10037000082FEDD34FF4BE74204600F0FBFB48B1CC
:10038000204600F0EDFB45F000456A4601210020C3
:1003900000F0C4FB15F0FF0F16D0012600242E42FA
:1003A0000ED008EB8401D1F81005D1F81015C0F378
:1003B00004200A4AC1F3014152F8242002B19047B7
:1003C0007600641C082CEAD3002D02DA684600F09F
:1003D00033FCBDE8F883000000600040601100209D
:1003E00070B54FF48076304600F022FB114CB50515
:1003F00060B1304600F023FB0120C5F808036079A6
:1004000020B9012060712168002088474FF482766E
:10041000304600F00DFB00280AD0304600F00FFBFC
:100420000220C5F808032168BDE870400120084794
:1004300070BD0000640000202DE9F041164E4FF41D
:10044000A071304600F09EFB0025EFF311844020A0
:1004500080F31188D6F804758100304600F092FBD5
:1004600001F062FB381A20F07F46012E07D901F017
:100470004DFB022803D0002601F05CFB0543761EED
:10048000FAD225B105494FF08050086040BFE0B274
:1004900080F31188BDE8F0810010014004ED00E018
:1004A000F0B5B5480023021D0178101D01254FF05D
:1004B000805406290BD11678360708D10678C6F382
:1004C0000316032E06D0042E04D0052E02D00629D2
:1004D00007D00EE0B4F82463A84FC6F304263E60AC
:1004E00002E01678360704D10678C6F30316032E09
:1004F00002D0062904D00FE0A24FA14E7E670EE085
:100500001678360708D10678C6F30316032E06D0F0
:10051000042E04D0052E02D0062907D00EE0D4F810
:100520004462994FC6F342363E6002E016783607C1
:1005300004D10678C6F30316032E02D0062906D08E
:1005400011E0924E376827F0807737600EE016781A
:10055000360708D10678C6F30316032E06D0042EFC
:1005600004D0052E02D006290AD011E04FF08046B3
:10057000C6F80C31C6F81031834E361F336002E0E6
:100580001678360704D10678C6F30316032E02D078
:10059000062905D00CE07C4F032664373E600AE054
:1005A0001678360704D10678C6F30316032E02D058
:1005B00006290DD014E0764F05263E60744E78363D
:1005C0003560734E083633603F263F1D3E6002E0C3
:1005D0001678360704D10678C6F30316052E02D026
:1005E000062957D062E06B4E36686B4F3E60694E0D
:1005F000361D36683F1D3E60664E083636683F1D24
:100600003E60644E0C3636683F1D3E60614E1036CB
:1006100036683F1D3E605F4E143636683F1D3E60B3
:100620005C4E183636685C4F20373E60594E1C369B
:1006300036683F1D3E60574E203636683F1D3E608F
:10064000544E243636683F1D3E60524E283636687A
:100650003F1D3E604F4E2C3636683F1D3E604D4E6E
:10066000303636684C4F40373E604A4E3436366836
:100670003F1D3E60474E383636683F1D3E60454E52
:100680003C3636683F1D3E60424E403636683F1D60
:100690003E6002E01678360708D10678C6F30316E6
:1006A000032E06D0042E04D0052E02D0062907D032
:1006B00019E0D4F85812394A01F04F01116002E0F4
:1006C000117809070FD10078C0F30310032803D075
:1006D000042801D0052806D131480168C90702D095
:1006E0006FF001010160D4F83001062808D1D4F878
:1006F0003401062804D12B48016841F4806101606F
:1007000022487438016841F470010160BFF34F8FD3
:10071000BFF36F8F4FF01021D1F80002002803DBE8
:10072000D1F80402002822DA1F4A15601F48046825
:10073000002CFCD01524C1F800420568002DFCD027
:10074000C1F8044201680029FCD013600168002947
:10075000FCD0BFF34F8F0D48F0380168144A01F404
:10076000E06111430160BFF34F8F00BFFDE7124905
:1007700010480860F0BD0000E00F00F04035014077
:100780000DF0ADBA00C007403C050040FCED00E0B4
:10079000105600400404001020C50040E40E004044
:1007A000000400403C17004004E5014000E4014023
:1007B0000400FA050090D0037000002002E008C891
:1007C000121F08C1002AFAD170477047002001E0CB
:1007D00001C1121F002AFBD17047000072B6094800
:1007E0000068C00700D000BEBFF34F8F0548E43853
:1007F0000168054A01F4E06111430160BFF34F8FC6
:1008000000BFFDE7F0ED00E00400FA050EB50021A1
:100810000091CDE901106A4644F20100FFF7DEFFC6
:100820000EBD00F003B800F009B8000072B602482F
:100830000168491C016070476C000020034908688A
:10084000401E086000D162B6704700006C000020B6
:100850002DE9FC410646C0074FF000050ED0104FB1
:1008600000240122385D009500231146019500F017
:1008700031F9641C042CF4D300F02EF8B0070DD528
:10088000074E0024361D0022305D032300951146DB
:10089000019500F01FF9641C042CF4D3BDE8FC8121
:1008A000281E000007490B5C4FF0A041D1F8042539
:1008B0000120984020EA0203C1F808351040C1F831
:1008C0000C057047281E00000249085C012100F059
:1008D0003BB90000281E000010B500242046FFF799
:1008E000F3FF641C042CF9D310BD00000249084436
:1008F00090F93000704700006011002070B5084C7E
:10090000050009D010342168002907D0086820604C
:10091000496828468847F6E70834F4E770BD0000C8
:100920004C110020054A012120B1012805D1917008
:10093000FFF7E4BF51700020FAE770474C11002028
:1009400009490120096809B1002070470749CA69AF
:10095000002AF9D1044A283212688968491E8A425D
:10096000F3D1022070470000E8100020140000209E
:100970000268134602E08A4204D01268002AFAD1C3
:100980000B60016070470020FFF78CFFC82000F06B
:100990001BFEF8E70120FFF785BF00001CB500F043
:1009A00057F808B1FFF732FF0120FFF751FF144954
:1009B0000220CDE9000100234FF4827211A11348F7
:1009C00001F078F812480090002301224FF47A7168
:1009D00010A001F0C7F90A4C606001F0A5F80246CA
:1009E0000020034600900121606801F0F5F90B48F2
:1009F000016841F00401016000F032FEFEE70000F2
:100A0000000000204C454430000000008709000031
:100A1000950900004C4544310000000010ED00E055
:100A2000C20800F007030120895C98400840704725
:100A300000F180400068002800D00120704708B510
:100A400000F18040002101600068009008BD0000B6
:100A500070B50C4C0125207808B185260BE00020EC
:100A6000A06060602061E060074800F0AFF80646D3
:100A700000F096F8257000F08BF800B1A5703046B4
:100A800070BD00004C1100202509000070B5104D0C
:100A90000446A87838B114B1616801208847002065
:100AA000FFF7BFFE0CE00020FFF7BBFE24B10848B3
:100AB00021461030FFF75CFFE86808B900F096F8AF
:100AC000E868401CE860BDE870400020FFF7ABBE5E
:100AD0004C11002070B541EA4201DDE904564FF0A7
:100AE000A04441EA830141EA052104EB800041EA88
:100AF0000641C0F8001770BD4FF0A04202EB800025
:100B0000D0F8002722F44032C0F80027D0F80027A0
:100B100042EA0141C0F800177047000038B5094BA0
:100B200044181B6800936B4608E000BF53F8201080
:100B3000D1F8205520C2C1F82055401C8442F5D878
:100B400038BD0000341E000001224FF0A043824057
:100B500011B1C3F808257047C3F80C257047000091
:100B6000034908B50844002101600068009008BDF1
:100B70000060004002494058012800D00020704722
:100B80000060004008B5002242504058009008BD67
:100B900002480068002800D001207047000401408E
:100BA00008480068012110F0010F06D14FF0E02045
:100BB000C02280F80024C0F8001103490120086019
:100BC0007047000000E100E01805004006490246B9
:100BD00000200B790BB1852070470A6001220A7151
:100BE00000224A71704700006400002070B54FF485
:100BF0008270FFF724FF02204107C1F804030B4B6A
:100C0000196841F0807018600948026842F00104D8
:100C1000046044684FF40A554668361BAE42FBD365
:100C20000260196003490120086070BDFCED00E01E
:100C3000001000E0080000402DE9F05F2A4F064652
:100C40004FF0A04A4FF0010B0024381990F95010D2
:100C5000491C3CD090F85000314620F0C005284691
:100C6000FFF7DEFE20B3204600F040F881460AEB95
:100C70008500D0F80007C0F30148B8F1020F18D082
:100C800002212846FFF738FF0BFA05F1CAF82015B4
:100C90002846FFF72BFE57F820204AB14846B9F105
:100CA000030F11D0B8F1020F05D0B8F1030F07D030
:100CB0000DE00321E5E74846B9F1010F04D006E055
:100CC0004846B9F1020F02D1014628469047641CFC
:100CD000042CBAD3324601210020FFF71FFF3068F1
:100CE0000028B1D1BDE8F09F6011002002490844FE
:100CF00090F8500080097047601100202DE9F04104
:100D0000184C0F460546E6682068001D00F05AFBA7
:100D100038B9206890F82C1001208840216981435F
:100D20002161681C07D137B12168BDE8F0410E4848
:100D3000091D00F080BB20683544B542456021683C
:100D400005D2A06BBDE8F041091D00F05CBB606BF3
:100D5000091D00F058FBA06A854200D2A562BDE8DB
:100D6000F081000014000020101100202DE9F04156
:100D7000054600F06DFB2E4CA068401CA06020686A
:100D80002C4F10B1606940B32DE02560A0680128A8
:100D900029D1002606EB860007EB800000F025FB3A
:100DA000761C032EF6D323483C3000F01EFB21486E
:100DB000503000F01AFB1F48643000F016FB1D484D
:100DC000783000F012FB1B488C3000F00EFB194805
:100DD0003C3060631430A06305E02068E96AC06AB3
:100DE000884200D82560606A401C6062E96A012080
:100DF000226988401043206101EB810007EB8000ED
:100E0000291D00F018FB00F02DFB606900280DD0B3
:100E10002068E96AC06A884208D207494FF08050CA
:100E2000086040BFBFF34F8FBFF36F8FBDE8F08105
:100E3000140000208410002004ED00E010B500F044
:100E400007FB0E4C2068A0B90D4800F0CEFA0C4804
:100E5000143000F0CAFA0A48E06014302061002221
:100E60001021202000F07CFC206010B105A100F0D2
:100E700075FBBDE8104000F0F5BA000050000020FE
:100E800024110020546D72510000000030B4026C37
:100E90000B46002A0BD0C1681144C1604468A142CE
:100EA00001D30168C16030BC1846FFF711BA30BCED
:100EB00070472DE9F041856B174604460026026C09
:100EC00082B1C7B1E068FFF703FAE168206C091A44
:100ED000E1602268914202D26168081AE060022F44
:100EE00016D017E02068A8B9606800F073FE0646C7
:100EF000002060600EE0A068FFF7EAF9216CA068AE
:100F00000844A0606168884204D32068A06001E0C2
:100F100005B16D1E6D1CA5633046BDE8F08110B5AE
:100F20000446006B00F0A8FA2046BDE8104000F02F
:100F3000A3BA00000A4800210269012A00D9012150
:100F40000268D26A0AB100207047064A1268012A74
:100F5000F9D80029F7D1816AC068081A70470000E3
:100F600014000020841000201A4C1B4E12E000BF19
:100F700000F06EFAF068C568281D00F023FAA0683A
:100F8000401EA0606068401E606000F06BFA28465A
:100F9000FFF7C5FF60680028EAD10F48783800687D
:100FA000012808D90D494FF08050086040BFBFF3B9
:100FB0004F8FBFF36F8FFFF7BDFF0228D5D300F02F
:100FC0007FFBFFF7B7FF022801D300F077FA00F0AC
:100FD0006FFECAE714000020FC10002004ED00E0C2
:100FE0002DE9F0470E46DDE9098417468246910057
:100FF0009946089DA522206BFFF77CF96FF003014D
:10100000206B01EB8701084420F00707002022181D
:10101000315C82F83410315C11B1401C0428F6D3E5
:10102000002684F83760032D00D30225E562C4E969
:101030000E56201D00F0E4F904F1180000F0E0F96C
:101040002461C5F103006462A061266484F84460F1
:101050004A465146384600F099F92060B8F1000F31
:1010600001D0C8F80040BDE8F087000070B500244A
:1010700041600B4D0061914206D8D11A82699142BC
:1010800006D2011D286907E09A4203D2994201D392
:10109000012403E0011DE86800F0B5F9204670BDA9
:1010A0005000002010B5044600F0D2F9A06B28B122
:1010B0005FF0000400F0D6F9204610BD0124F9E7E6
:1010C00030B589B0264D41E00498002806DADDE904
:1010D0000601059A90470498002837DB069C606952
:1010E00010B1201D00F06EF902A800F09DF8024634
:1010F00004980A282AD2DFE800F0050505291E26F3
:101100000505291E0598A169034601442046FFF7FD
:10111000ADFFD8B1616A20468847E069012815D142
:10112000002000900598A169002342181946204626
:1011300000F052FE0AE00598A0618118134620468F
:10114000FFF794FF02E0204600F096F9002204A980
:10115000286800F00DFC0028B6D109B030BD0000B1
:10116000500000202DE9FC410F46054600F0A8FA8A
:1011700001A800F059F80446019818B100F098FD54
:10118000BDE8FC811E4EB7B130690068A8B30027E6
:10119000291B3A46306800F0F5F900F089FD002877
:1011A000EED118494FF08050086040BFBFF34F8F19
:1011B000BFF36F8FE4E7A542EAD800F079FDF0684D
:1011C0002746C068C468201D00F0FCF8E0690128CB
:1011D0000FD1A0692B4641193A462046FFF746FF3A
:1011E00038B100200346014600902A46204600F010
:1011F000F3FD616A20468847C2E7FFE70127C7E79A
:101200005000002004ED00E00648416B096829B158
:10121000416BC968C9684968816270474FF0FF3106
:10122000FAE700001400002070B5054600F07CFCD1
:10123000064E0446B068844203D200F009F801204B
:1012400000E0002028602046B46070BD50000020FF
:10125000F8B5144D1EE0C068C4680668201D00F093
:10126000B1F8616A20468847E069012812D1A06977
:101270003044B04206D924616060211DE86800F066
:10128000C2F807E00020034601460090324620469F
:1012900000F0A2FDE86801680029DCD12969C5E9F0
:1012A0000310F8BD50000020402080F31188FEE7B5
:1012B000074CE068016841B1C0680021D0F8000027
:1012C000FFF750FFFFF7FCFEF3E701210020F7E7EF
:1012D000500000202DE9F041044600F0B9F894F9DF
:1012E000455004F1240609E0606A48B1304600F038
:1012F000A9FC08B100F08AF96D1E6DB2002DF3DC77
:101300004FF0FF3684F8456000F0ACF800F0A0F82C
:1013100094F9445004F1100709E0206948B13846B7
:1013200000F090FC08B100F071F96D1E6DB2002D57
:10133000F3DC84F84460BDE8F04100F093B80000AD
:1013400070B504460025400704D004F00700C0F142
:101350000800044400F0B4F90A49486818B90A487A
:1013600020F0070048600A6840F6F87310199842A8
:1013700004D2904202D94B6808609D1800F098FC96
:10138000284670BD080000207C00002010B5084CE5
:10139000031F24681C601B1F1960191F054B0B607D
:1013A00014390A60091F6FF0020244380A6010BD48
:1013B000301E0000A9120000EFF31180402181F3DC
:1013C00011887047D0E9013201699A60D0E90123A0
:1013D0005A604A68824201D182684A6000220261F2
:1013E0000868401E08600868704700F108014FF067
:1013F000FF32C0E90112C160016100210160704744
:1014000000210161704730B50B685A1C02D000F111
:10141000080202E0026904E02246546825689D4201
:10142000FAD953684B6099608A605160086101681D
:10143000491C016030BD42684A6093688B609368C4
:101440005960916008610168491C016070470000A3
:10145000402080F3118802480168491C01607047F0
:101460001000002003490868401E086001D180F385
:1014700011887047100000207047000010B5002050
:10148000FFF704FB0B481F21C0F808150121C0F825
:101490000413816001600221C0F844130649E02072
:1014A00081F800044FF0E0214FF40030C1F8000152
:1014B00010BD00000010014011E000E02DE9F041F6
:1014C00004462448844200D9044672B6224DD5F819
:1014D0000475FFF735FAD0B33819012120F07F40A9
:1014E000C5F80813C5F840054FF4A07841462846D2
:1014F000FFF748FB4FF48030C5F80403BFF34F8F6C
:101500004FF0E02634B120BFD6F80012D6F80422FE
:101510001143F8D0C5F8080341462846FFF732FBCF
:101520004FF480712846FFF72DFB0120C5F8040316
:10153000D5F804054FF40031C01B20F07F40C6F8F9
:101540008012A04200D9204608B100F0B1F862B67E
:10155000BDE8F081FDFFFF000010014010B5084B11
:10156000002200BF53F832401CB1521C022AF9D3AA
:1015700010BD43F8321003EBC201486010BD0000FB
:101580007410002070B515460E460446FFF760FF44
:1015900094F944100020491C01D184F8440094F9C6
:1015A0004510491C01D184F84500FFF75BFFA06B93
:1015B00028B92A46314604F1240000F03DF82046BF
:1015C000BDE87040FFF786BE10B5020009D000F0FC
:1015D00077F800211046FFF791FB00F069FB002827
:1015E00008D105494FF08050086040BFBFF34F8FCE
:1015F000BFF36F8F10BD000004ED00E002490A6ADE
:101600000260C96841607047140000200149012050
:10161000C86170471400002010B50C4605490968E0
:101620001831FFF7F0FE2046BDE810400121FFF71A
:1016300065BB00001400002070B50D460749144634
:1016400009681831FFF7F7FE0CB14FF0FF3521465E
:101650002846BDE87040FFF751BB00001400002091
:101660001CB50F480024CDE9004023463C220DA1C3
:101670000E4800F01FFA012811D100F08FFB01285D
:101680000DD1402080F311880548611E2C388162FD
:1016900001214161C460BDE81C4000F03BB81CBDA5
:1016A0004000002049444C4500000000690F000044
:1016B0000249CA681044C860704700001400002046
:1016C0000248016B491C01637047000014000020B0
:1016D0000E48016B11B10121C16170470021C16148
:1016E00001690B4AB1FA81F1C1F11F0101EB8101DE
:1016F00002EB810101F108034A6852684A609A428C
:1017000001D152684A60D16801607047140000201E
:10171000841000200E49E02081F8140DFFF7AEFE82
:101720000C49002008600C48016841F47001016018
:101730000A48016841F04041016007487838016873
:1017400041F010010160FEF775FDFFF7ADFD0000EF
:101750000EE000E01000002088ED00E034EF00E033
:1017600070B50E00054612D005FB06F04830FFF7B5
:10177000E7FD040009D004F1480120464EB10160A4
:10178000C0E90F56012100F007F8204670BD002087
:10179000ECE70060F4E7000070B50D460446FFF783
:1017A00057FED4E90F12206801FB020060600020A0
:1017B000A0632068A0600146E06B401E00FB0210A1
:1017C000E0604FF0FF3084F8440084F8450004F1F5
:1017D00010004DB1FFF709FE04F12400FFF705FEEC
:1017E000FFF740FE012070BD21690029F8D000F00C
:1017F00029FA0028F4D005494FF08050086040BF16
:10180000BFF34F8FBFF36F8FEAE7000004ED00E0F6
:101810002DE9FF4700273C4E82B099468A46044690
:10182000B8464FF0805500BFFFF712FEA06BE16B8A
:10183000884206D3B9F1020F03D00498C8B1DFB1D2
:101840001EE04A4651462046FFF733FB616A19B154
:1018500004F1240000F0F6F928B1356040BFBFF371
:101860004F8FBFF36F8FFFF7FDFD012006B0BDE87E
:10187000F087FFF7F7FD21E06846FFF7BFFE01277D
:10188000FFF7F0FDFFF71CFFFFF7E2FD94F94400BE
:10189000401C01D184F8448094F94500401C01D1DA
:1018A00084F84580FFF7DEFD04A9684600F0DAF809
:1018B00030B12046FFF70EFD00F0FAF90020D5E721
:1018C000FFF7C6FDA06BE16B884214D1FFF7CAFD9C
:1018D00004F110000499FFF79FFE2046FFF7FAFC81
:1018E00000F0E6F900289FD1356040BFBFF34F8F6D
:1018F000BFF36F8F98E7FFF7B5FD2046FFF7EAFCCF
:1019000000F0D6F990E7000004ED00E02DE9F04783
:101910009846174689460446FFF74EFDA16B0646DA
:10192000E06B814208D3B8F1020F05D00020F1B27C
:1019300081F31188BDE8F08794F945504246494645
:101940002046FFF7B6FA681C04D06D1C84F8455099
:101950000120ECE7606A0028FAD004F1240000F0CE
:1019600071F90028F4D0002FF2D001203860EFE7A1
:101970002DE9F7470026DFF8E88083B08A46044661
:10198000B1464FF0805700BFFFF762FDA56BCDB1A8
:1019900051462046FFF77AFA6D1EA563206958B1BB
:1019A00004F1100000F04EF930B1C8F8007040BFEB
:1019B000BFF34F8FBFF36F8FFFF754FD012006B0C9
:1019C000BDE8F087059808B11EB106E0FFF74AFDB3
:1019D00027E06846FFF712FE0126FFF743FDFFF7F9
:1019E0006FFEFFF735FD94F94400401C01D184F8E7
:1019F000449094F94500401C01D184F84590FFF7CC
:101A000031FD05A9684600F02DF8002820460AD0CF
:101A1000FFF760FC00F04CF92046FFF743FB00287D
:101A2000B2D00020CBE7FFF73DFB98B104F12400D2
:101A30000599FFF7F1FD2046FFF74CFC00F038F95F
:101A40000028A1D1C8F8007040BFBFF34F8FBFF38B
:101A50006F8F99E72046FFF73DFC00F029F993E7E7
:101A600004ED00E02DE9F0410C460546FFF7F0FCDF
:101A70000F4BDA686E682168901B4F1C07D02F68E7
:101A80001B6A9F4209D0964207D8012400E0002437
:101A9000FFF7E8FC2046BDE8F081814205D9081A2D
:101AA00020602846FFF7AAFDF1E700202060ECE760
:101AB000140000202DE9FF5F8346DDE90E8799467B
:101AC00016468A469000FFF73BFC05001AD04820D6
:101AD000FFF736FC040012D025630021CDE9024156
:101AE000CDE900874B46324651465846FFF778FA13
:101AF0002046FFF73BF9012004B0BDE8F09F2846DF
:101B0000FFF7BAFC4FF0FF30F6E7000005484169E7
:101B100019B1006B18B100207047012070470220F6
:101B200070470000140000200148C06870470000A2
:101B3000140000202DE9F041244C0027206B40B117
:101B4000A069401CA061E06900B101273846BDE8EA
:101B5000F081E668761CE66008D1606BA16B61637A
:101B6000A063206A401C2062FFF74EFBA06A8642F9
:101B7000E9D3606B006838B1606BC068C56868689D
:101B8000864204D2A062DEE74FF0FF30FAE7281D5C
:101B9000FFF718FCA86A18B105F11800FFF712FC4E
:101BA000E86A01212269814011432161084900EB63
:101BB000800001EB8000291DFFF73DFCE86A2168E9
:101BC000C96A8842D5D30127D3E70000140000205A
:101BD0008410002070B504004FF000012BD0E06BA2
:101BE000401EE063A36BE26A9A4224D018BB201D1A
:101BF000FFF7E8FB114B124A012150B9E06A00EBF4
:101C0000800553F8255025B9156901FA00F0854380
:101C10001561A06BE062C0F10300A061E06A156984
:101C200081402943116100EB800003EB8000211DFE
:101C3000FFF701FC0121084670BD00008410002060
:101C4000140000202DE9F041C068C46804F11800B8
:101C50000746FFF7B7FB144D286B012660B1134808
:101C6000394600BFFFF7E7FBE06A2968C96A884286
:101C700013D90124EE6111E0201DFFF7A3FBE16AF7
:101C80002A6906FA01F01043286101EB8100074937
:101C9000643901EB8000211DE4E70024FFF7B4FA6A
:101CA0002046BDE8F081000014000020E81000206C
:101CB0002DE9F04700242646FFF7CAFB264D286B86
:101CC000401E2863286BE8BBA968244F0120C9B3D4
:101CD000A7F1640980463868E8B1F868C46804F17F
:101CE0001800FFF76FFB201DFFF76CFBE06A2A6905
:101CF00008FA00F11143296100EB800109EB810032
:101D0000211DFFF798FBE06A2968C96A8842E2D37F
:101D1000C5F81C80DFE70CB1FFF776FAAC694CB16F
:101D20004FEA0807FFF706FF00B1EF61641EF9D123
:101D30000020A861E86928B1094901263007086038
:101D400040BF00E003E0BFF34F8FBFF36F8FFFF79B
:101D500089FB3046BDE8F08714000020E810002021
:101D600004ED00E02DE9F04706461F46154688467B
:101D70002820DDF82090FFF7E3FA04000BD0FFF7EE
:101D80005DF804F11C01C4F81880266081E8A00207
:101D9000201DFFF735FB2046BDE8F0871CB5002469
:101DA000FFF74CF80848006858B107490220091DA0
:101DB000CDE900010023502204A10648FFF77AFE76
:101DC000044620461CBD000050000020546D7220C7
:101DD00053766300B11200002DE9FF41114C1F46FC
:101DE0000346266800200A9D002E0ED08DE80E00C6
:101DF00006290FDAFFF78AFE02284FF0000307D00A
:101E0000002269462068FFF703FD04B0BDE8F081B9
:101E10002A46F6E700233A4669463046FFF776FD44
:101E2000F3E7000050000020191A13140D0E0F10D4
:101E30000000000100000050581E000000000020BB
:101E400074000000BC070000CC1E000074000020DD
:101E50004C310000CC070000000000000000000032
:101E60000000000000000000000000000000000072
:101E70000000000000000000000000000000000062
:101E80000000000000000000000000000000000052
:101E90000000000000000000000000000000000042
:101EA0000000000000000000000000000000000032
:101EB0000000000000000000000000000000000022
:0C1EC00000000000000000000090D003B3
:0400000500000201F4
:00000001FF
